:020000040800F2
:10000000900700200101000885030008A9020008EC
:100010008103000849010008A50B0008000000004A
:10002000000000000000000000000000250500089E
:100030004D010008000000000D040008390600080A
:100040001B0100081B0100081B0100081B01000820
:100050001B0100081B0100081B0100081B01000810
:100060001B0100081B0100081B0100081B01000800
:100070001B0100081B0100081B0100081B010008F0
:100080001B0100081B0100081B0100081B010008E0
:100090001B0100081B0100081B0100081B010008D0
:1000A0001B0100081B0100081B0100081B010008C0
:1000B0001B0100081B0100081B0100081B010008B0
:1000C0001B0100081B0100081B0100081B010008A0
:1000D0001B01000855070008710800089109000875
:1000E0001B0100081B0100081B010008DFF80CD0F1
:1000F00000F018F800480047590C0008900700204D
:100100000648804706480047FEE7FEE7FEE7FEE7B1
:10011000FEE7FEE7FEE7FEE7FEE7FEE73D06000836
:10012000ED000008064C074D06E0E06840F00103D2
:1001300094E8070098471034AC42F6D3FFF7DAFF93
:10014000200D0008400D000800BFFEE770470000CA
:1001500008B50121082000F06BF910208DF803008C
:1001600003208DF802004020ADF8000069460248E7
:1001700000F004F808BD0000000C01402DE9F0413A
:10018000024600250026002000230024002791F8C5
:1001900003C00CF00F0591F803C00CF0100CBCF17B
:1001A000000F03D091F802C04CEA050591F800C099
:1001B000BCF1000F31D0146800202BE04FF0010C8F
:1001C0000CFA00F3B1F800C00CEA03069E4220D1FD
:1001D00083004FF00F0C0CFA03F7BC4305FA03FC45
:1001E0004CEA040491F803C0BCF1280F06D14FF08B
:1001F000010C0CFA00FCC2F814C00AE091F803C02C
:10020000BCF1480F05D14FF0010C0CFA00FCC2F80C
:1002100010C0401C0828D1D31460B1F800C0BCF154
:10022000FF0F34DD546800202EE000F1080C4FF081
:10023000010808FA0CF3B1F800C00CEA03069E426C
:1002400021D183004FF00F0C0CFA03F7BC4305FAE1
:1002500003FC4CEA040491F803C0BCF1280F05D15B
:1002600000F1080C08FA0CF8C2F8148091F803C0E9
:10027000BCF1480F07D100F1080C4FF0010808FA53
:100280000CF8C2F81080401C0828CED35460BDE89A
:10029000F0810246002093680B400BB1012000E082
:1002A000002070470161704700BFFEE708B50121DB
:1002B000142000F0BDF84020ADF8000004208DF8B7
:1002C000030069461E48FFF759FF02201D490871C7
:1002D0005020088100208872C8724FF48070ADF8F9
:1002E000000028208DF8030069461548FFF746FFF7
:1002F0004FF48050ADF8000010208DF8030003206B
:100300008DF8020069461048FFF738FF4FF480511E
:100310000D48FFF7C7FF02200C490871962008819D
:1003200000208872C8724FF40050ADF8000004201D
:100330008DF8030069460648FFF720FF08BD00005E
:100340000008014080030020000C014070030020E1
:100350000010014008B50121082000F069F8802054
:10036000ADF8000010208DF8030003208DF8020086
:1003700069460248FFF702FF08BD0000000C01407B
:1003800000BFFEE77047000070B5002100230F2278
:10039000C47804B3154C246804F4E064C4F5E06444
:1003A000210AC1F10403CA40447804FA03F18478B5
:1003B0001440214309010E4C0678A155047804F03D
:1003C0001F050124AC4005786D11AD0005F1E02555
:1003D000C5F8004109E0047804F01F050124AC4091
:1003E000044D0678761145F8264070BD0CED00E00E
:1003F00000E400E080E100E002490143024A1160AC
:10040000704700000000FA050CED00E070470000A6
:1004100029B1064AD2690243044BDA6104E0034A77
:10042000D2698243014BDA6170470000001002403C
:1004300029B1064A92690243044B9A6104E0034AD7
:1004400092698243014B9A6170470000001002409C
:1004500030B500210022002400232D4D6D6805F0E9
:100460000C0121B1042905D0082923D105E0294D2B
:10047000056022E0274D05601FE0254D6D6805F4FD
:100480007012234D6D6805F48034022505EB92420D
:100490001CB9214D554305600BE01D4D6D6805F4F9
:1004A00000351DB11C4D5543056002E0194D554303
:1004B000056002E0174D056000BF00BF144D6D6878
:1004C00005F0F0010909154D6B5C0568DD404560DC
:1004D0000F4D6D6805F4E061090A104D6B5C4568CD
:1004E000DD4085600A4D6D6805F46051C90A0B4D09
:1004F0006B5C4568DD40C560054D6D6805F44041A5
:10050000890B074D6B5CC568B5FBF3F5056130BD24
:100510000010024000127A0000093D00180000207F
:1005200028000020704710B500F002F810BD000050
:100530000CB50020019000903348006840F48030F2
:100540003149086000BF3048006800F40030009076
:100550000198401C0190009818B90198B0F5A06F5F
:10056000F1D12948006800F4003010B1012000905A
:1005700001E0002000900098012843D12348006842
:1005800040F01000214908600846006820F0030090
:1005900008600846006840F0020008601A48406899
:1005A000194948600846406848600846406840F479
:1005B000806048600846406820F47C104860084627
:1005C000406840F4E81048600846006840F08070D9
:1005D000086000BF0C48006800F000700028F9D0E7
:1005E0000948406820F00300074948600846406811
:1005F00040F00200486000BF0348406800F00C0073
:100600000828F9D10CBD0000001002400020024073
:10061000042808D14FF0E021096941F004014FF0AE
:10062000E022116107E04FF0E021096921F00401A7
:100630004FF0E022116170477047000010B5134879
:10064000006840F001001149086008464068104900
:1006500008400E494860084600680E4908400B49AA
:1006600008600846006820F480200860084640685A
:1006700020F4FE0048604FF41F008860FFF753FF2E
:100680004FF000600449086010BD000000100240F7
:100690000000FFF8FFFFF6FE08ED00E000B587B0B0
:1006A00001210420FFF7C4FE01218803FFF7C0FEEB
:1006B0004FF40070ADF8180018208DF81B000320CF
:1006C0008DF81A0006A92148FFF758FD4FF4806005
:1006D000ADF8180004208DF81B0006A91B48FFF791
:1006E0004DFD4FF4165002900020ADF80C00ADF80F
:1006F0000E00ADF81000ADF814000C20ADF812009B
:1007000002A9134800F0E2F925208DF80400062024
:100710008DF8050000208DF8060001208DF80700F7
:1007200001A8FFF731FE012240F22441084800F001
:10073000A8F9012240F22551054800F0A2F9012153
:10074000034800F068F907B000BD00000008014050
:100750000038014010B540F22551164800F067F905
:1007600098B140F22551134800F046F91148001D98
:100770000088C1B2104890F8C82090F8C800401C0A
:100780000D4B83F8C8001846815440F224410948B3
:1007900000F04DF968B1074800880648001D008840
:1007A000054890F8C8000449A1F8CA00002081F863
:1007B000C80010BD003801404000002000B587B0DF
:1007C00001210420FFF734FE01214804FFF720FE39
:1007D0000420ADF8180018208DF81B0003208DF8B8
:1007E0001A0006A92048FFF7C9FC0820ADF8180038
:1007F00004208DF81B0006A91B48FFF7BFFC4FF42F
:10080000165002900020ADF80C00ADF80E00ADF8C7
:100810001000ADF814000C20ADF8120002A9134826
:1008200000F054F926208DF8040006208DF805000C
:1008300000208DF8060001208DF8070001A8FFF7C1
:10084000A3FD012240F22441084800F01AF90122D8
:1008500040F22551054800F014F90121034800F049
:10086000DAF807B000BD0000000801400044004075
:1008700010B540F22551164800F0D9F898B140F271
:100880002551134800F0B8F81148001D0088C1B286
:10089000104890F8C82090F8C800401C0D4B83F811
:1008A000C8001846815440F22441094800F0BFF8BE
:1008B00068B1074800880648001D0088054890F880
:1008C000C8000449A1F8CA00002081F8C80010BD82
:1008D000004400400C01002000B587B00121082031
:1008E000FFF7A6FD01218804FFF792FD4FF4806019
:1008F000ADF8180018208DF81B0003208DF81A00A1
:1009000006A92148FFF73AFC4FF40060ADF8180043
:1009100004208DF81B0006A91B48FFF72FFC4FF49D
:10092000614002900020ADF80C00ADF80E00ADF86B
:100930001000ADF814000C20ADF8120002A9134805
:1009400000F0C4F827208DF8040006208DF805007B
:1009500000208DF8060001208DF8070001A8FFF7A0
:1009600013FD012240F22441084800F08AF80122D8
:1009700040F22551054800F084F80121034800F0B9
:100980004AF807B000BD0000000C014000480040DC
:1009900010B540F22551164800F049F898B140F2E0
:1009A0002551134800F028F81148001D0088C1B2F5
:1009B000104890F8C82090F8C800401C0D4B83F8F0
:1009C000C8001846815440F22441094800F02FF82D
:1009D00068B1074800880648001D0088054890F85F
:1009E000C8000449A1F8CA00002081F8C80010BD61
:1009F00000480040D801002010B50022002340F636
:100A00006A14A14200D100BF0A1201249440A3B28B
:100A1000DC43048010BD21B1828942F400528281FE
:100A200004E082894DF6FF731A408281704770B5E9
:100A30000246002400230025002040F66A16B14239
:100A400000D100BFC1F3421501F01F03012606FAD1
:100A500003F3012D02D19689334006E0022D02D125
:100A6000168A334001E0968A33400C12012606FABA
:100A700004F41688344013B10CB1012000E00020CA
:100A800070BDF0B50346002400260025002040F686
:100A90006A17B94200D100BF1846C1F3421401F0F1
:100AA0001F06012707FA06F5012C01D10C3004E0DE
:100AB000022C01D1103000E014301AB107682F4326
:100AC000076002E00768AF430760F0BD2DE9F0471B
:100AD00086B005460E460024A24600BFA146002768
:100AE000B08900B100BF2F462C8A4CF6FF7004403D
:100AF000F08804432C82AC894EF6F3100440B08891
:100B000031890843718908430443AC81AC8A4FF6AC
:100B1000FF400440B0890443AC8201A8FFF798FC71
:100B20001F48874202D1DDF810A001E0DDF80CA0DB
:100B3000A88900F4004040B10AEBCA0000EB0A109B
:100B400031684900B0FBF1F807E00AEBCA0000EB9E
:100B50000A1031688900B0FBF1F86420B8FBF0F0AE
:100B600004012009642101FB1089A88900F40040D8
:100B700040B1322000EBC900B0FBF1F000F00700FB
:100B8000044308E0322000EB09106421B0FBF1F0CF
:100B900000F00F0004432C8106B0BDE8F087000090
:100BA0000038014000BFFEE702E008C8121F08C17C
:100BB000002AFAD170477047002001E001C1121FDE
:100BC000002AFBD17047000010B56FF00400FFF75A
:100BD0001FFD0A4800680A49B0FBF1F00949087096
:100BE0000846007800EB4001C1EBC0104FF6FF71E2
:100BF00001EAC0000449088010BD00000000002088
:100C000000127A0014000020160000200146114A4C
:100C100012884A434FF0E0235A6100229A611A4633
:100C2000126942F001021A6100BF4FF0E022106920
:100C300000F001021AB100F48032002AF5D04FF022
:100C4000E022126922F001024FF0E0231A61002233
:100C50009A61704716000020FFF7B6FF4FF4A060BE
:100C6000FFF7CAFBFFF776FBFFF772FAFFF71EFBF1
:100C7000FFF714FDFFF7A2FDFFF72EFE3FE04FF454
:100C800080512448FFF705FB002835D12248007920
:100C9000052803DA0520204908710FE01E48007975
:100CA0000A2805DA1C480079401C1B49087105E038
:100CB0001948807A10B901201749887216480089AE
:100CC000002819DD1448C08813490989884205DACB
:100CD0001148C088401C1049C8800DE00F48007CB6
:100CE00050B94FF480510B48FFF7DCFA00200A4955
:100CF00008718872C88006E01420FFF787FF074854
:100D0000007C0028BBD000BF03E04FF49670FFF7D3
:100D10007DFFFAE7000C0140700300202C0000204A
:100D2000400D0008000000202C000000A80B000867
:100D30006C0D00082C00002064070000B80B0008B0
:100D400000A24A04000000000000000001020304A9
:100D5000060708090000000000000000010203046B
:0C0D60000102030406070809020406084B
:0400000508000101ED
:00000001FF
