:020000040800F2
:10000000582F002001010008F50F0008A109000881
:10001000F10F0008B3090008C91C00080000000027
:100020000000000000000000000000009511000822
:10003000B7090008000000007D10000859130008EF
:100040001B0100081B0100081B0100081B01000820
:100050001B0100081B0100081B0100081B01000810
:100060001B0100081B0100081B0100081B01000800
:100070001B0100081B0100081B0100081B010008F0
:100080001B0100081B0100081B0100081B010008E0
:100090001B0100081B0100081B0100081B010008D0
:1000A0001B0100081B0100081B0100081B010008C0
:1000B0001B0100081B010008BD1300081B010008FC
:1000C0001B0100081B0100081B0100081B010008A0
:1000D0001B01000851170008451900081B01000802
:1000E000B90900081B0100081B010008DFF80CD04B
:1000F00000F034FC00480047C9290008582F0020B0
:100100000648804706480047FEE7FEE7FEE7FEE7B1
:10011000FEE7FEE7FEE7FEE7FEE7FEE75D13000809
:10012000ED00000840EA01039B0703D009E008C97D
:10013000121F08C0042AFAD203E011F8013B00F8AC
:10014000013B521EF9D27047D2B201E000F8012BF8
:10015000491EFBD270470022F6E710B513460A4647
:1001600004461946FFF7F0FF204610BDF0B480EAC0
:100170000102D40F4200B2EB410F02D20246084600
:1001800011464A0042D0C30DDDB2C1F3C752AD1AC9
:10019000202D35DAC1F3160141F4000204B15242B8
:1001A000C5F1200602FA06F12A411044B3EBD05FF4
:1001B00023D0C4B1012DA0EBC35009DCF0BC4FF03B
:1001C000004202EAC352DBB200F5000000F063BA5D
:1001D000400000F1807000EBC350A0F1807040EA55
:1001E000D170490009E0490841EAC071A0EBC35051
:1001F00000F50000400800EBC350F0BC00F042BA2C
:100200006142012202EB4101001BF6E7F0BC70479E
:1002100081F00041AAE780F00040A7E780EA0102F0
:1002200010B502F00043400022D04A001FD0010E5A
:1002300001EB1261C0F35600C2F3560240F4000015
:1002400042F40002A0FB022000047F39140400D015
:10025000401C50EA124001D44000491EC2B20C06B4
:1002600004EBD010401C4008802A02D003E000209C
:1002700010BD20F00100002900DA0020184310BD55
:100280002DE9FE4F804681EA0300C00F0C46009026
:1002900021F0004123F00045B8EB0200A94105D24E
:1002A0004046214690461C460B46024623F000403D
:1002B000104347D0270DC7F30A00C3F30A51029039
:1002C000401A019040286BDAC3F3130040F4801BFE
:1002D0000098924620B10023D2EB030A63EB0B0B8C
:1002E00001985946C0F14002504600F0AAF906466E
:1002F0000D4650465946019A00F0B2F910EB08003D
:100300006141002487EA115284EAE7731A4340D01E
:10031000009A62B3019A012A4FEA075215DC001BCA
:1003200061EB02014FF0004202EA0752CDE90042C0
:10033000001C41F5801132462B4600F0E9F903B06C
:10034000BDE8F08F40462146F9E7001B61EB020152
:10035000001C41F5801300185B412018A2F500171E
:1003600047EB030140EAD570B6196D4111E06D0805
:100370004FEA360645EAC0754FEA0752001B61EBAB
:100380000201001C41F5801149084FEA30000019B4
:10039000514132462B4603B0BDE8F04F00F0A9B9F9
:1003A0000098012240000023D0EB020263EBE073CF
:1003B000009821464FEAE074B8EB000061EB0401BD
:1003C000E9E783F000435BE781F0004158E72DE95E
:1003D000FE4F81EA030404F0004421F00041009440
:1003E0004FF0000B23F0004350EA01045ED052EAC4
:1003F00003045BD0C3F30A54C1F30A552C44A4F29E
:10040000F3340194A0FB0254C1F3130141F48011B1
:10041000C3F3130343F4801301FB024400FB034EB8
:10042000840A970A44EA815447EA8357A4FB076881
:1004300002958D0A05FB07854FEA932C04FB0C54AB
:100440002705029D4FEA065847EA1637B5EB08051F
:100450006EEB070C870E920E47EA811742EA831271
:10046000A7FB0201B6EB0B0164EB00042B0D43EA82
:100470000C335E1844EB1C50DA465146E7FB020190
:10048000C5F313044FEA0B3343EA14534FEA043223
:10049000019C43EA0603A4F10C040294009CCDE9FC
:1004A00000B400F035F903B0BDE8F08F002001463C
:1004B000F9E7C10F80EAE0700844CA0796230021DB
:1004C00000F0E9B896230022114600F0E4B80EB51A
:1004D00040F2334102910021CDE900110A460B465A
:1004E00000F016F903B000BD20F00040C10DC0F3CC
:1004F000160040F400007F2901DA00207047962999
:1005000003DCC1F19601C8407047963988407047B6
:1005100000F0004230F000400AD0C10D01F56071DA
:10052000C0F3160042EA0151C20840071143704768
:10053000002001467047000030B5041E71F1000430
:1005400004DB4FF00044404264EB0101141E73F1E0
:10055000000405DB1C464FF00043524263EB0403EA
:10056000994208BF904230BD01F0004330B421F001
:10057000004150EA010206D00A0DA2F56072C1F3F3
:100580001301002A02DC30BC00207047440F44EA0B
:10059000C104C100E01830BC00EBC25000F072B8DA
:1005A000002801DBC0F10040002901DBC1F100415E
:1005B0008842704730B50B460146002020220124B6
:1005C00009E021FA02F59D4205D303FA02F5491B21
:1005D00004FA02F52844151EA2F10102F1DC30BD37
:1005E0002DE9F05F0546002092469B468846064668
:1005F000814640241BE0284641464746224600F0FB
:10060000BFF953465A46C01A914110D311461846B5
:10061000224600F016F82D1A67EB01084F462246D5
:100620000120002100F00DF817EB00094E41201EBB
:10063000A4F10104DFDC484631462A464346BDE8C2
:10064000F09F202A04DB203A00FA02F100207047D4
:100650009140C2F1200320FA03F319439040704700
:10066000202A06DBCB17203A41FA02F043EAE07376
:1006700006E041FA02F3D040C2F120029140084363
:10068000194670470029A8BF7047401C490008BFA1
:1006900020F00100704710B4B0FA80FC00FA0CF0B2
:1006A00050EA010404BF10BC704749B1CCF12004EA
:1006B00021FA04F411FA0CF118BF01212143084377
:1006C000A3EB0C01CB1D4FEA00614FEA102042BFA3
:1006D000002010BC704700EBC35010440029A4BF99
:1006E00010BC7047401C490008BF20F0010010BC3E
:1006F000704710B5141E73F1000408DA401C41F174
:10070000000192185B411A4301D120F0010010BD95
:100710002DE9F04D92469B4611B1B1FA81F202E00B
:10072000B0FA80F220329046FFF78BFF04460F4666
:1007300040EA0A0041EA0B0153465A46084313D0E7
:10074000114653EA010019D0C8F14002504600F0AA
:1007500017F905460E46504659464246FFF771FFC7
:10076000084305D0012004E020463946BDE8F08D5D
:100770000020054346EAE0762C4337430A98630598
:10078000E40AA0EB08000022FD0A44EA47540A30BC
:1007900002D500200146E9E7010510196941DDE9AC
:1007A000084500196941BDE8F04DA2E72DE9F04D7B
:1007B00081EA030404F0004B21F0004514464FF099
:1007C000000A23F0004150EA050220D054EA010259
:1007D0001DD0C5F30A570246C5F31303C1F3130036
:1007E000C1F30A5640F4801543F48013A7EB0608C2
:1007F000101BD64608F2FD3873EB050002D308F152
:10080000010801E092185B41B8F1000F03DA002003
:100810000146BDE8F08D00204FF480110646844665
:100820000EE0171B73EB050705D3121B63EB0503E3
:1008300006434CEA010C49084FEA300092185B412C
:1008400050EA0107EDD152EA030012D082EA040017
:1008500083EA0501084305D0101BAB4106D20122F3
:10086000002306E000224FF0004302E06FF0010297
:1008700053101AEB06004CEB085110EB0A0041EB49
:100880000B01BDE8F04DFFF734BF2DE9F04D00231B
:100890001A461B1A8A4103DB00200146BDE8F08D91
:1008A000C1F30A52C1F3130141F480154FF0000B5C
:1008B000D10702D100186D41521E0027044640F2B4
:1008C000FF11384601EB620A3E4680460246002090
:1008D0004FF4801100F054F8C2197141BB1846EB77
:1008E0000100B4EB030C75EB000C04D3E41A65EBC8
:1008F000000517460E46241908F101006D41804697
:100900003428E3DDF91946EB0600091BA84103D2A0
:100910004FF0FF32134601E0002213461BEB0700A5
:1009200046EB0A51BDE8F04DFFF7E3BEC1F30A52B2
:10093000C1F3130140F2FF3341F480119A4202DA0D
:1009400000200146704740F233439A42A2F23342FC
:1009500002DC524200F014B8FFF773BE064C074D9C
:1009600006E0E06840F0010394E80700984710347F
:10097000AC42F6D3FFF7BEFB5C2F00087C2F0008CB
:10098000202A04DB203A21FA02F00021704721FAE4
:1009900002F3D040C2F1200291400843194670474B
:1009A0001EF0040F0CBFEFF30880EFF3098000F096
:1009B0005BB900BFFEE7704710B54FF4005000F080
:1009C0001DF860B14FF4487001F058FF4FF400512A
:1009D000054800F03CF910B90120044908604FF4C3
:1009E000005000F005F810BD000C01403C00002054
:1009F00001490860704700001404014001460020CE
:100A00000022074B1B6803EA0102054B14331B68E5
:100A10000B4013B10AB1012000E000207047000034
:100A20000004014008B50121082000F039FB4FF413
:100A30000070ADF8000018208DF8030003208DF839
:100A400002006946014800F077F808BD000C01403B
:100A500010B500F045F8FFF7E5FF00F001F810BD14
:100A600000B587B00121042000F00AFB6320ADF837
:100A700014004720ADF810000020ADF81600ADF8C6
:100A800012008DF8180004A9134800F0B5FD60208D
:100A9000ADF800000120ADF802000020ADF808001C
:100AA0000E480088ADF8060069460B4800F056FD78
:100AB0000821094800F090FD0121074800F022FDBF
:100AC00001221146044800F040FD0121024800F0D7
:100AD0001FFD07B000BD00000008004040000020DE
:100AE00008B54FF4E06000F0BFFA1E208DF800005A
:100AF00000208DF8010003208DF8020001208DF800
:100B00000300684600F078FA08BD000008B501212E
:100B1000082000F0C5FA10208DF8030003208DF89E
:100B200002004020ADF800006946024800F004F8D9
:100B300008BD0000000C01402DE9F04102460025EF
:100B40000026002000230024002791F803C00CF0A9
:100B50000F0591F803C00CF0100CBCF1000F03D08E
:100B600091F802C04CEA050591F800C0BCF1000FF5
:100B700031D0146800202BE04FF0010C0CFA00F388
:100B8000B1F800C00CEA03069E4220D183004FF06A
:100B90000F0C0CFA03F7BC4305FA03FC4CEA0404FF
:100BA00091F803C0BCF1280F06D14FF0010C0CFAEC
:100BB00000FCC2F814C00AE091F803C0BCF1480F71
:100BC00005D14FF0010C0CFA00FCC2F810C0401C1B
:100BD0000828D1D31460B1F800C0BCF1FF0F34DD98
:100BE000546800202EE000F1080C4FF0010808FACC
:100BF0000CF3B1F800C00CEA03069E4221D1830039
:100C00004FF00F0C0CFA03F7BC4305FA03FC4CEA57
:100C1000040491F803C0BCF1280F05D100F1080CC1
:100C200008FA0CF8C2F8148091F803C0BCF1480F20
:100C300007D100F1080C4FF0010808FA0CF8C2F8CF
:100C40001080401C0828CED35460BDE8F0810246D5
:100C5000002093680B400BB1012000E0002070479A
:100C600041617047016170472949096801F00041FD
:100C700049B12749096841F00041254A116081695D
:100C8000891C81617047224908390968214A11622B
:100C90001F49091F097882F824101D49C91E0978C7
:100CA00091621B490C310968D1621949891E098872
:100CB00011861749096851631549091D096891632F
:100CC000134910310968D1630021134A116000BF34
:100CD000114909680029FBD00E4A0168116041687A
:100CE000516081689160C168D16001691161416999
:100CF000516181699161C169D1610021064A116028
:100D000000BF054909680029FBD000BFBAE7000011
:100D10002CED00E0142B0020600000202DE9F34FA3
:100D2000F3B088467822394954A8FFF7FBF94FF011
:100D30001E093C223549783145A8FFF7F3F9142103
:100D400004A8FFF708FA00260027B246002430E086
:100D500054A850F824107398FFF75DFA039054A834
:100D600050F824107398FFF756FA02900399FFF792
:100D700055FA83465146FFF7F9F982465046FFF788
:100D8000C7FBCDE9000102F069F8CDE90201FFF7E8
:100D9000EBFB09A941F8340045A931F81400FFF72D
:100DA00091FB09A901EBC40148604FF0000A601CE7
:100DB00084B24C45CCDB494609A800F083FA0024F4
:100DC00014E009A901EBC4014868FFF78DFB04A9F1
:100DD00021F8140004A830F81400012802D1701C76
:100DE00086B201E0781C87B2601C84B24445E8DB1F
:100DF000BE4202D1BDF8105004E0BE4201DD012523
:100E000000E00225284675B0BDE8F08FA82E000846
:100E100008B501210C2000F043F98020ADF8000056
:100E200004208DF8030069461848FFF785FE02206C
:100E3000174908715020088100208872C8724FF449
:100E40008070ADF8000028208DF8030069460F4837
:100E5000FFF772FE4FF40050ADF8000010208DF83F
:100E6000030003208DF8020069460A48FFF764FE7C
:100E70004FF400510748FFF7F5FE022006490871BC
:100E80009620088100208872C87208BD00080140C1
:100E9000042B0020000C0140F42A002010B53F482C
:100EA000007C012878D141033D48FFF7D0FE00289F
:100EB00039D13C480079052803DA05203949087101
:100EC0000FE0384800790A2805DA36480079401CD6
:100ED0003449087105E03348807A10B9012031495E
:100EE00088723048008900283BDD2E48C0882D4993
:100EF0000989884205DA2B48C088401C2949C880E6
:100F00002FE001202749C87200208872C872C8806B
:100F10002549087025490880254908802549087019
:100F20001E4908741DE000201E49C880C87208468A
:100F30000079052802DD0520087112E019480079C2
:100F400028B118480079401E1649087109E0154873
:100F5000807A012805D11348C07A10B900201149C0
:100F6000887280211448FFF772FE38B90B48007868
:100F700018B901200949087048700DE080210E4819
:100F8000FFF765FE012807D104480078012803D146
:100F9000002002490870487010BD00006C0000205D
:100FA000000C0140F42A00203800002044000020FA
:100FB00042000020000000200008014008B5012187
:100FC000082000F06DF88020ADF8000010208DF8AA
:100FD000030003208DF8020069460448FFF7ACFDCA
:100FE000802002491031086008BD0000000C01405B
:100FF00000BFFEE77047000070B5002100230F22FC
:10100000C47804B3154C246804F4E064C4F5E064C7
:10101000210AC1F10403CA40447804FA03F1847838
:101020001440214309010E4C0678A155047804F0C0
:101030001F050124AC4005786D11AD0005F1E025D8
:10104000C5F8004109E0047804F01F050124AC4014
:10105000044D0678761145F8264070BD0CED00E091
:1010600000E400E080E100E002490143024A11602F
:10107000704700000000FA050CED00E0704700002A
:1010800029B1064AD2690243044BDA6104E0034AFB
:10109000D2698243014BDA617047000000100240C0
:1010A00029B1064A92690243044B9A6104E0034A5B
:1010B00092698243014B9A61704700000010024020
:1010C00030B500210022002400232D4D6D6805F06D
:1010D0000C0121B1042905D0082923D105E0294DAF
:1010E000056022E0274D05601FE0254D6D6805F481
:1010F0007012234D6D6805F48034022505EB924291
:101100001CB9214D554305600BE01D4D6D6805F47C
:1011100000351DB11C4D5543056002E0194D554386
:10112000056002E0174D056000BF00BF144D6D68FB
:1011300005F0F0010909154D6B5C0568DD4045605F
:101140000F4D6D6805F4E061090A104D6B5C456850
:10115000DD4085600A4D6D6805F46051C90A0B4D8C
:101160006B5C4568DD40C560054D6D6805F4404128
:10117000890B074D6B5CC568B5FBF3F5056130BDA8
:101180000010024000127A0000093D004A000020D1
:101190005A000020704710B500F002F810BD0000A2
:1011A0000CB50020019000903348006840F4803076
:1011B0003149086000BF3048006800F400300090FA
:1011C0000198401C0190009818B90198B0F5A06FE3
:1011D000F1D12948006800F4003010B101200090DE
:1011E00001E0002000900098012843D123480068C6
:1011F00040F01000214908600846006820F0030014
:1012000008600846006840F0020008601A4840681C
:10121000194948600846406848600846406840F4FC
:10122000806048600846406820F47C1048600846AA
:10123000406840F4E81048600846006840F080705C
:10124000086000BF0C48006800F000700028F9D06A
:101250000948406820F00300074948600846406894
:1012600040F00200486000BF0348406800F00C00F6
:101270000828F9D10CBD00000010024000200240F7
:1012800010B504462146024800F0B3F910BD000035
:101290000008004070B504460D4600260FE02846C1
:1012A000FFF7EEFF4FF4FA7001F0E8FA0020FFF7C5
:1012B000E7FF4FF47A7001F0E1FA701CC6B2A64263
:1012C000EDDB70BD2DE9F04705460E4600272BE00B
:1012D000002423E0621C55F8321055F83400FFF763
:1012E0005FF919D255F83480601C55F8300045F884
:1012F0003400601C45F8308005EBC400D0F8049041
:10130000601C05EBC000406805EBC4014860601C30
:1013100005EBC000C0F80490601C84B2701EC01BB6
:10132000A042D7DC781C87B2B742D1DBBDE8F0879A
:10133000042808D14FF0E021096941F004014FF081
:10134000E022116107E04FF0E021096921F004017A
:101350004FF0E022116170477047000010B513484C
:10136000006840F0010011490860084640681049D3
:1013700008400E494860084600680E4908400B497D
:1013800008600846006820F480200860084640682D
:1013900020F4FE0048604FF41F008860FFF7FBFE5A
:1013A0004FF000600449086010BD000000100240CA
:1013B0000000FFF8FFFFF6FE08ED00E010B5012188
:1013C000484800F0B1F8002871D047480088401C18
:1013D0004549088045480078022803D180204449C7
:1013E00008606DE04148007801281CD18020404908
:1013F000091D08603C48008842F21071884207DBF2
:101400000020394908803B480088401C3949088041
:1014100038480088032853DB002036490880012023
:10142000354908744CE03148007850BB00203349FE
:1014300008702D480088B0F5FA7F0FDB00202A499C
:1014400008802C480088401C2A4908802848001F32
:10145000006880F080002649091F08602548008840
:101460003C282DDB0020234908808020204908608B
:1014700002201E49087040211D481038FFF7F0FB7C
:101480001EE01A480078032812D11748008842F25B
:101490001071884214DB0020134908801448001F93
:1014A000006880F080001249091F086008E018E019
:1014B0000E480078042803D180200D49091D0860DA
:1014C0000F480088401C0E49088008460088C8283C
:1014D00003DB00200880FFF7E1FC0121014800F058
:1014E00014F810BD0008004044000020380000201F
:1014F000100C0140420000206C0000200000002081
:1015000020000020CA4302827047CA43028270470B
:1015100021B1028842F00102028004E002884FF605
:10152000FE731A400280704730B502460020002347
:101530000024158A05EA0103958905EA010413B11F
:101540000CB1012000E0002030BD1AB183890B43AB
:10155000838102E083898B438381704770B50022C9
:1015600000230024058C4EF6FF7635400584038C5D
:101570008488828B48F6FF752A404FF6FF452A4043
:101580000D884FF6FF7606EA05252A434DF6FF75CE
:101590002B400D8906EA05352B434D8806EA0535B3
:1015A0002B430B4DA84202D00A4DA84208D14BF65E
:1015B000FF752C408D894FF6FF7606EA85152C4382
:1015C00084808283CD88A0F84050038470BD0000E1
:1015D000002C0140003401400A460021818B4FF26B
:1015E000FF7319404FF6FF7303EA02231943818307
:1015F0007047A0F840107047002202881D4B9842A7
:101600000ED01D4B98420BD0B0F1804F08D01B4B31
:10161000984205D01A4B984202D01A4B984204D1F6
:101620004FF68F731A404B881A43174B984207D0D6
:10163000164B984204D04FF6FF431A40CB881A430A
:1016400002808B8883850B8803850A4B98420BD0D8
:10165000094B984208D00E4B984205D00D4B98424A
:1016600002D00D4B984201D10B7A0386012383826D
:1016700070470000002C014000340140000400408D
:1016800000080040000C0040001000400014004022
:1016900000400140004401400048014000B587B0CF
:1016A00001210420FFF7FCFC01218803FFF7F8FC6F
:1016B0004FF40070ADF8180018208DF81B000320BF
:1016C0008DF81A0006A91F48FFF736FA4FF480601C
:1016D000ADF8180004208DF81B0006A91948FFF783
:1016E0002BFA4FF4614002900020ADF80C00ADF8E9
:1016F0000E00ADF81000ADF814000C20ADF812008B
:1017000002A9114800F03CFA25208DF804000620BB
:101710008DF8050000208DF8060001208DF80700E7
:1017200001A8FFF769FC012240F22551064800F0AC
:1017300001FA0121044800F0BAF9012003490870B8
:1017400007B000BD0008014000380140390000200A
:1017500010B540F225514B4800F0C2F9002874D072
:1017600040F22551474800F093F9464800F074FADA
:10177000C4B245480078062814D2DFE800F081039F
:10178000142D4667AA2C0DD1404890F8C81090F847
:10179000C800401C3D4A82F8C8001046445402204C
:1017A000394908706CE0AA2C0ED1384890F8C8105E
:1017B00090F8C800401C354A82F8C80010464454CE
:1017C00003203149087006E00020304981F8C80044
:1017D00001202D49087053E0202C0ED12B4890F8A1
:1017E000C81090F8C800401C284A82F8C80010466B
:1017F000445404202449087006E00020234981F85D
:10180000C8000120204908703AE0204890F8C8003C
:1018100022280BDA1D4890F8C81090F8C800401C28
:101820001A4A82F8C800104644540DE0174890F850
:10183000C81090F8C800401C144A82F8C80010462E
:1018400044540520104908701AE01AE00F4890F837
:10185000C81090F8C800401C0C4A82F8C800104616
:10186000445490F8C8001146A1F8CA00002081F83D
:10187000C800012004490870114681F8C90000BF62
:1018800000BF10BD0038014039000020C2270020F1
:1018900000B587B001210420FFF702FC01214804B4
:1018A000FFF7EEFB0420ADF8180018208DF81B00A0
:1018B00003208DF81A0006A92048FFF73DF90820FB
:1018C000ADF8180004208DF81B0006A91B48FFF78F
:1018D00033F94FF4165002900020ADF80C00ADF82B
:1018E0000E00ADF81000ADF814000C20ADF8120099
:1018F00002A9134800F044F926208DF804000620C0
:101900008DF8050000208DF8060001208DF80700F5
:1019100001A8FFF771FB012240F22441084800F0C2
:1019200009F9012240F22551054800F003F901218F
:10193000034800F0BCF807B000BD000000080140FB
:101940000044004010B540F225512E4800F0C8F880
:1019500098B140F225512B4800F09AF82948001D13
:101960000088C1B2284890F8C82090F8C800401CF0
:10197000254B83F8C8001846815440F22441214881
:1019800000F0AEF880B11F4800881E48001D008896
:101990001D4890F8C8001C49A1F8CA00012081F830
:1019A000C900002081F8C80040F22771154800F0F6
:1019B00097F828B340F22771124800F069F81348ED
:1019C00090F8C8001149B1F8CA1088420EDA0F48E1
:1019D00090F8C82090F8C800401C0C4B83F8C80051
:1019E0001846815C074800F03CF909E0002240F20B
:1019F0002771044800F09EF80020044981F8C800CF
:101A000010BD0000004400408E280020262A00203F
:101A100000B585B001210820FFF742FB01218804B1
:101A2000FFF72EFB4FF48060ADF8100018208DF802
:101A3000130003208DF8120004A91348FFF77CF867
:101A40004FF40060ADF8100004208DF8130004A9D5
:101A50000D48FFF771F84FF4E13000900020ADF829
:101A60000400ADF80600ADF80800ADF80C000C203D
:101A7000ADF80A006946054800F082F801210348E4
:101A800000F015F805B000BD000C01400048004012
:101A900010B50022002340F66A14A14200D100BF15
:101AA0000A1201249440A3B2DC43048010BD21B18A
:101AB000828942F40052828104E082894DF6FF73EC
:101AC0001A408281704702460020B1F5007F00D1A4
:101AD00000BF13880B400BB1012000E000207047CD
:101AE00070B50246002400230025002040F66A1647
:101AF000B14200D100BFC1F3421501F01F0301261E
:101B000006FA03F3012D02D19689334006E0022D37
:101B100002D1168A334001E0968A33400C12012626
:101B200006FA04F41688344013B10CB1012000E029
:101B3000002070BDF0B503460024002600250020DB
:101B400040F66A17B94200D100BF1846C1F34214EB
:101B500001F01F06012707FA06F5012C01D10C3010
:101B600004E0022C01D1103000E014301AB10768F3
:101B70002F43076002E00768AF430760F0BD000035
:101B80002DE9F04786B005460E460024A24600BF68
:101B9000A1460027B08900B100BF2F462C8A4CF621
:101BA000FF700440F08804432C82AC894EF6F31099
:101BB0000440B08831890843718908430443AC81EB
:101BC000AC8A4FF6FF400440B0890443AC8201A8C0
:101BD000FFF776FA1F48874202D1DDF810A001E036
:101BE000DDF80CA0A88900F4004040B10AEBCA005F
:101BF00000EB0A1031684900B0FBF1F807E00AEB8E
:101C0000CA0000EB0A1031688900B0FBF1F86420CB
:101C1000B8FBF0F004012009642101FB1089A889B8
:101C200000F4004040B1322000EBC900B0FBF1F0FD
:101C300000F00700044308E0322000EB09106421A3
:101C4000B0FBF1F000F00F0004432C8106B0BDE8BA
:101C5000F08700000038014001468888C0F3080082
:101C60007047C1F3080282807047000010B5044637
:101C700006201349A1F8CA00AA2008700120487064
:101C8000002088700120C87008460471FF20487148
:101C9000002081F8C800084690F8C82090F8C800D5
:101CA000401C0B4683F8C8000846815C0548FFF7D6
:101CB000D8FF012240F227710248FFF73BFF10BD19
:101CC000262A00200044004000BFFEE70FB4054B69
:101CD00010B503A9044A029800F0E0F810BC5DF8C2
:101CE00014FB0000A52900086400002002E008C8D9
:101CF000121F08C1002AFAD170477047002001E086
:101D000001C1121F002AFBD1704700000149086081
:101D100070470000680000202DE9FF5F82B00021BD
:101D2000DDE90430020DDDF840B0034318D044F67D
:101D30001050A2F2FF3242431514119801281FD00F
:101D4000A5EB0B00401C5FEA000A4FF000064E4F67
:101D5000DFF83891B046504615D5CAF1000413E0BB
:101D6000119801244AA3012801D16FEA0B010298BE
:101D7000119AC0E90031C0E9024206B0BDE8F09F07
:101D8000CBF10000DFE704460021404A491842EB4E
:101D90000450CDE9001012E0E00707D032463B4680
:101DA00040464946FEF713FB8046894632463B468D
:101DB00010461946FEF70BFB06460F466410002C32
:101DC000EAD1DDE90401DDE90023BAF1000F06DA0A
:101DD000FEF7FDFA42464B46FEF7F9FA05E0FEF73C
:101DE000E5FC42464B46FEF7E1FC04460E46002267
:101DF000284BFEF7A1FB03D84FF0FF30014607E068
:101E00000022254B20463146FEF73AFAFEF78EFDBA
:101E1000102409E0002C0ADB0A220023FEF7E0FB75
:101E2000039B30321A55641E50EA0102F2D1641C41
:101E3000039AC4F111031444119A012A03D0012218
:101E400008430DD10AE0084304D000204FF0110BE5
:101E5000119072E7A3EB0B056D1E0DE05B4504DDF1
:101E60004FF0000205F1010504E003DA4FF0000233
:101E7000A5F10105002AECD002981199C0E90231C0
:101E8000C0E9004579E70000000014400000F03F81
:101E9000300000000000F0430000E03F2DE9FF4F5C
:101EA00095B09B468946064600250FE2252877D146
:101EB00000242746F84A0121059400E0044316F85F
:101EC000013F203B01FA03F01042F7D130782A2875
:101ED00011D06FF02F033078A0F13002092A16D804
:101EE000059A44F0020402EB820203EB4202104422
:101EF000761C0590EFE759F8042B0592002A03DAC7
:101F0000504244F40054059044F00204761C3078AA
:101F10002E2816D116F8010F44F004042A280DD0FB
:101F20006FF02F023078A0F13003092B09D807EBAE
:101F3000870302EB4303C718761CF3E759F8047BC9
:101F4000761C30786C280FD006DC4C2817D0682817
:101F50000DD06A2814D104E0742810D07A280FD14B
:101F60000DE044F400140AE044F4801401E044F469
:101F700040147278824202D104F58014761C761CDB
:101F8000307866280BD013DC582877D009DC00287D
:101F900075D04528F6D04628F4D047281AD19DE1BF
:101FA00018E0632835D0642879D0652812D195E1EE
:101FB000702873D008DC6728F1D069286FD06E28AC
:101FC0000DD06F2806D1B5E073282CD0752875D0B8
:101FD000782874D05A46179990476D1C75E1C4F360
:101FE0000250022809D003280DD0D9F80010042887
:101FF0000DD00D6009F1040967E1D9F80010EA1766
:10200000C1E90052F6E7D9F800100D80F2E70D7033
:10201000F0E719F8041B8DF8001000208DF801007E
:10202000EA46012003E059F804AB4FF0FF306107A6
:102030004FF0000102D40DE008F101018846B942D9
:102040000FDA8045F8DB1AF808100029F4D108E00F
:1020500008F1010188468142FADB1AF808100029CC
:10206000F6D105985B46A0EB080721463846179A3B
:1020700000F094FA284400EB080507E04DE029E160
:102080000DE01AF8010B5A4617999047B8F101086C
:10209000F7D25B4621463846179A13E142E00A22FE
:1020A0000092C4F302524FF0000A022A08D059F8F5
:1020B00004CB032A4FEAEC710AD00DE029E02AE0B4
:1020C00009F1070121F00702F2E802C1914609E097
:1020D0000FFA8CFC4FEAEC71042A03D14FFA8CFC06
:1020E0004FEAEC71002907DA0A460021DCF1000C06
:1020F00061EB02012D2202E0220504D52B228DF88E
:102100000420012203E0E20701D02022F7E79046F5
:1021100059E00A2102E010220DE010214FF0000AE0
:1021200000910BE010224FF0000A44F0040408274D
:10213000009203E008224FF0000A0092C4F302521A
:10214000022A05D059F804CB0021032A08D009E05F
:1021500009F1070121F00702F2E802C1914605E00A
:102160001FFA8CFC042A01D10CF0FF0C4FF0000880
:10217000220728D5702806D0009B83F0100353EA6D
:102180000A0305D00EE040228DF80420012208E069
:102190005CEA010206D030228DF804208DF805009B
:1021A00002229046009B83F0080353EA0A030AD1F7
:1021B0005CEA010201D1620705D530228DF80420C6
:1021C0004FF001087F1E582804D034A003900EA8B9
:1021D00002900DE036A0F9E753466046009AFEF7FC
:1021E000FFF984460398825C0298401E02900270B8
:1021F0005CEA0100F0D1029806A9081A00F1200A51
:10220000600702D524F4803400E00127574502DD41
:10221000A7EB0A0000E0002000EB0A0100900598FF
:102220004144401A0590E00306D45B462146179AC4
:10223000059800F0B3F90544002706E001A85A46C6
:10224000C05D179990476D1C7F1C4745F6DBE00386
:102250000CD55B462146179A059800F09FF9054476
:1022600004E030205A46179990476D1C0099481E8B
:1022700000900029F5DC08E0029802995A4600789F
:10228000491C0291179990476D1CBAF10001AAF1FF
:10229000010AF1DC65E10000092801003031323328
:1022A0003435363738396162636465660000000092
:1022B000303132333435363738394142434445467C
:1022C0000000000000F058F90544761C3078002822
:1022D0007FF4ECAD19B02846BDE8F08F620700D45A
:1022E000062709F1070222F0070CFCE80223E14669
:1022F00003F000485FEA080C02D00FF2702C0DE0EA
:102300005FEA045C02D50FF2682C07E05FEAC47C48
:1023100002D00FF2602C01E0AFF2700C4FF0FF38EA
:1023200023F00043CDF850C065280CD006DC4528CA
:1023300009D046281DD047283DD13DE0662818D059
:1023400067287ED138E00021112F01DB112000E049
:10235000781CCDE9000106A90EA8FFF7DDFCDDE938
:102360000F010E9A03910021009207F1010A0491D6
:102370004DE04FF000400097CDE9011006A90EA8EE
:10238000FFF7CAFCDDE90F0203920E9B11990022B0
:10239000DDF80CA00093049211B9791C00EB010A3E
:1023A000B7EB0A0004D4C0F1FF3007F1010A049032
:1023B000AAEB0700019044E0012F00DA0127002179
:1023C000112F01DD112000E03846CDE9000106A9FA
:1023D0000EA8FFF7A1FCDDE90F010E9A0391002181
:1023E00004910092BA4621070CD40399514500DAB2
:1023F0008A46BAF1010F05DD009AAAF10101515C8C
:10240000302908D0B84202DA10F1040F06DA0121AF
:10241000CDE9011015E0AAF10101E9E7002805DC8A
:10242000049901440491AAEB000102E0411C5145CA
:1024300000DD8A460499401A401C01904FF000408C
:102440000290200704D40198504501DBCDF80480A8
:1024500000208DF84F0002980DF14F07B0F1004FAA
:1024600025D02B200E9002984FF0020800280CDA9D
:10247000404202902D200E9007E00A210298FEF7BC
:1024800099F83031029007F8011DB8F10001A8F168
:102490000108F2DC02980028EFD1791E0E9808702E
:1024A000307800F0200040F0450007F8020D12A837
:1024B000C01B00F107081498007800B1012000EB60
:1024C0000A01019801EBE07105984144401A401E51
:1024D0000590E00306D45B462146179A059800F064
:1024E0005DF805441498007818B15A46179990473A
:1024F0006D1CE00324D55B462146179A059800F031
:102500004DF805441CE00498002807DBDDE90301D1
:10251000884203DD0098405C179901E0179930204C
:102520005A469047049805F10105401C0490019813
:10253000401E019004D12E205A46179990476D1CD9
:10254000BAF10001AAF1010ADDDC05E017F8010B80
:102550005A46179990476D1CB8F10001A8F101087F
:10256000F4DC5B462146179A0598ABE62D00000087
:102570002B000000200000002DE9F041044600255A
:102580001E461746880404D405E039462020B0478B
:102590006D1C641EF9D52846BDE8F0812DE9F04197
:1025A000044600251E469046C80301D5302700E0AA
:1025B0002027880404D505E041463846B0476D1C05
:1025C000641EF9D52846BDE8F08100002DE9F05FD2
:1025D0007F4890F8C90001287ED100207C4981F80D
:1025E000C90008460078AA28F6D108464078002895
:1025F000F2D10846B0F8CA00401E085CFF28EBD1B3
:102600000846807808281AD2DFE800F0DF041AA80C
:10261000B3BEDFC96E48B0F8CA00801E6C49095CC1
:102620006B48B0F8CA00C01E694A105C01EB00207C
:10263000684908800846018867A0FFF747FBC4E0A7
:102640006348B0F8CA00801E6149085C0A2820DA95
:10265000B1F8CA10091F5E4A505CFDF738FF064604
:102660000F465B49B1F8CA10891E594A505CFDF704
:102670002EFF82465D4A5E4BFDF7A9FE804632463C
:102680003B46FDF7FDFD0446FDF76EFF5949086026
:1026900059E04F48B0F8CA00801E4D49085C0A282E
:1026A00029DB0846B0F8CA00801E085C642822DADC
:1026B000B1F8CA10091F464A505CFDF708FF0646EC
:1026C0000F464349B1F8CA10891E414A505CFDF7D4
:1026D000FEFE8246484A00E078E0484BFDF777FE70
:1026E000804632463B46FDF7CBFD0446FDF73CFFF6
:1026F0004049086027E03648B0F8CA00801E3449D7
:10270000085C64281FDBB1F8CA10091F304A505C0E
:10271000FDF7DDFE04460D462D49B1F8CA10891EAD
:102720002B4A505CFDF7D3FE8046354A354BFDF70A
:102730004EFE064622462B46FDF7A2FD8246FDF7D9
:1027400013FF2C4908602B480068FDF7E1FE0446A2
:1027500022460B462CA0FFF7B9FA36E02C20FEF7F4
:102760008FFD2C210220FEF795FD2C202A490880A0
:102770002BE03620FEF784FD36210220FEF78AFD8D
:1027800036202549088020E04020FEF779FD4021D1
:102790000220FEF77FFD40201F49088015E00C480D
:1027A000B0F8CA00801E0A49095C0948B0F8CA009E
:1027B000C01E074A105C01EB00201849088008463B
:1027C000018817A0FFF782FA00BF00BFBDE8F09FA5
:1027D0008E28002016000020546573745F736372A6
:1027E0006F7065203D202564000000009A9999993A
:1027F0009999B93F180000207B14AE47E17A843FD5
:10280000FCA9F1D24D62503F5468726573686F6CD9
:1028100064203D20256600000600002012000020F4
:10282000617474656E74696F6E5F6C6F6F705F6EEC
:10283000756D203D2025640010B56FF00400FEF793
:1028400077FD0A4800680A49B0FBF1F009490870B1
:102850000846007800EB4001C1EBC0104FF6FF7155
:1028600001EAC0000449088010BD000024000020D7
:1028700000127A0046000020480000200146114A5C
:1028800012884A434FF0E0235A6100229A611A46A7
:10289000126942F001021A6100BF4FF0E022106994
:1028A00000F001021AB100F48032002AF5D04FF096
:1028B000E022126922F001024FF0E0231A610022A7
:1028C0009A617047480000202DE9F041C1F30A5297
:1028D000A2F2FF362F4A304B0D460446142E2FDA53
:1028E000002E12DAFDF7CCFC00221346FDF724FE81
:1028F0004CD2002DA4BF0024254647DA25F0004025
:10290000204318BF254D41D018E0DFF894C02CFAC1
:1029100006F705EA070C5CEA040C08BFBDE8F08185
:10292000FDF7AEFC00221346FDF706FE2ED2002D69
:1029300003DA4FF48010F0400544BD43002425E045
:10294000332EC8BFBDE8F081A6F1140C4FF0FF375D
:1029500027FA0CF73C4208BFBDE8F081FDF734FDD3
:1029600000221346FDF7E8FD10D2002D0DDA142EDB
:1029700008BF6D1C09D0C6F13400012101FA00F036
:102980002044A04238BF6D1C0446BC432946204663
:10299000BDE8F0819C7500883CE4377E0000F0BF04
:1029A000FFFF0F0070B504460D46E1B20548FFF782
:1029B00058F900BF80210348FFF785F80028F9D0B7
:1029C000204670BD00480040FFF736FF4FF4A0607E
:1029D000FEF74AFBFEF7F2FAFEF798F8FEF718FA50
:1029E000FEF75CFEFEF754FFFFF712F8FEF730F833
:1029F00046E04FF400512D48FEF729F900283CD15C
:102A00002B480079052803DA0520294908710FE0D1
:102A1000274800790A2805DA25480079401C24490E
:102A2000087105E02248807A10B901202049887297
:102A30001F480089002820DD1D48C0881C490989DD
:102A4000884205DA1A48C088401C1949C88014E039
:102A50001848007C88B940211448FEF703F900208B
:102A6000134908718872C88001201349087000203A
:102A7000124908801249088006E01420FFF7FEFE84
:102A80000C48007C0028B4D000BF0020FEF7F8FB03
:102A90000BE00848007C012803D1FFF797FD00F008
:102AA00011F84FF47A70FFF7E9FEF2E7000C0140ED
:102AB000F42A00206C000020380000204400002090
:102AC000420000202DE9F04F8DB000200C9081468F
:102AD0008246202104A8FDF73EFBA34890F8C900D8
:102AE00001287BD10020A04981F8C9000846007860
:102AF000AA28F6D108464078AA28F2D1084690F8CC
:102B000002A0BAF1200FECD100BF00240BE09649DF
:102B1000E01C085C04A9085504A8005D48441FFA9D
:102B200080F9601C84B25445F1DB8F490AF103003F
:102B3000085C0C906FEA090000F0FF090C9848450A
:102B4000CFD1002089490870894908709DF811008B
:102B5000864908700846007890B186480078401C85
:102B600084490870084600780A2813DB0020FEF725
:102B700087FB03208049087000208049088009E015
:102B80007D480078042805D004207B490870002087
:102B90007A4908809DF82D0075490870084600782C
:102BA000FFF764F89DF82F00754908706F480078AA
:102BB00030B16F48007818B90846007800286BD00B
:102BC0006B4801786F48704A128881546E480088BB
:102BD000401C6D4908800846018800E0C0E06BA0F9
:102BE000FFF774F8684800886D490988884249D120
:102BF0006B4801886BA0FFF769F80027002003E00D
:102C00006049095C0F44401C5F4909888842F7DB32
:102C10005D48008897FBF0F52846FDF74AFC6749B8
:102C20000860002708460068FDF772FC05462A4642
:102C30000B4663A0FFF74AF869A0FFF747F8322177
:102C40005048FDF788FA00204F49088009215B4869
:102C50000068FEF763F86349088008460188624807
:102C6000624A128820F812105E48018860A0FFF7BF
:102C70002DF85BA0FFF72AF85C480088401C5B49F0
:102C8000088000BF5C4801885CA0FFF71FF8574828
:102C900001885EA0FFF71AF8544800885649098851
:102CA00088425DD15148018858A0FFF70FF841F2E2
:102CB000883B00242FE04C4830F81400022804D14F
:102CC00057480088401C564908804B480088FDF74B
:102CD000F9FB0090534801680098FDF79FFA0190B6
:102CE000FDF716FCCDE90201FFF7EEFD05460E46A5
:102CF0004B480088FDF7EBFB07462A463346FDF7B5
:102D00001BFC03D802204849088002E00120464904
:102D10000880601C84B25C45CDDB434800880228F3
:102D200009D1424801880220FEF7B4FA3F480188E1
:102D30003FA0FEF7CBFF3C48018842A0FEF7C6FF4C
:102D400027A0FEF7C3FF00202849088034490880E7
:102D50003549088042F210712348FDF7FCF900BFA5
:102D60000DB0BDE8F08F0000C22700201C0000203D
:102D70001D0000200000002038000020440000203A
:102D80001E00002080000020100000206174746587
:102D90006E74696F6E5F6C6F6F703A25642000000F
:102DA00012000020617474656E74696F6E5F6C6FE1
:102DB0006F705F6E756D3A25642000000C00002076
:102DC0004176657261676520617474656E74696FC0
:102DD0006E2076616C75652069733A256620000067
:102DE0000A00000002000020B200002014000020B1
:102DF0004B4E4E3A25642000160000205465737433
:102E00005F73636F70653A2025640000616C6C72BB
:102E10006573756C745F636F756E743A202564001A
:102E200008000020180000200400002006000020F8
:102E3000766962726174696F6E5F6672653A2025A9
:102E400064000000766962726174696F6E5F72651A
:102E500073756C743A202564000000002DE9F04180
:102E600006460F46FDF711FD041E0D4618BF012052
:102E7000284320F00040C0F17F6000F1E040C00F27
:102E80000ED0301C18BF0120384320F00040C0F1A4
:102E90007F6000F1E040C00F04BF0120FEF736FF65
:102EA00020462946BDE8F0814992434285F64A42D0
:102EB00049922F427B09514209ED61422FBA3442B7
:102EC0005D7433422FBA304216B25442A73755428E
:102ED000862C5442BAE84A42BAE88E42B76D1F4285
:102EE00049922442918518422FBA16425D742142BC
:102EF00046174542461719428C2EF64100000742FC
:102F0000E9A20F428C2E3042A38B2E427B09E54171
:102F100025492142B76D00422549E241B76D06427D
:102F20000100010001000100010001000100010099
:102F30000100010001000100010001000100020088
:102F40000200020002000200020002000200020071
:102F50000200020002000200020002007C2F0008B2
:102F6000000000206C000000EC1C0008E82F0008A6
:102F70006C000020EC2E0000FC1C0008000000008B
:102F800000002C0000000000000000000000010014
:102F900000000A003333333F00000000000000004F
:102FA00000A24A0400000000000000000102030427
:102FB00006070809020000000000000002000000EF
:102FC00000000000000000000000010203040102F4
:102FD00003040607080902040608000000000000B8
:082FE0000000000000000000E9
:0400000508000101ED
:00000001FF
